:020000040000FA
:10000000300820206D010000710100007301000024
:1000100000000000000000000000000000000000E0
:10002000000000000000000000000000750100005A
:100030000000000000000000770100002D1F0000FC
:100040007B010000510C00007B0100007B010000DF
:100050007B0100007B0100007B0100007B010000B0
:10006000000000007B0100007B0100000000000098
:10007000000000007B0100007B0100007B0100000C
:100080007B0100007B010000B52000007B01000027
:100090007B0100007B010000000000000000000068
:1000A0007B0100007B010000000000000000000058
:1000B0007B010000000000007B0100007B010000CC
:1000C00000F002F800F042F812A030C808382418F6
:1000D0002D18AC4201D100F039F80FCCA246AB4646
:1000E0000CA730CF2D1B083F3F197C427F1E544484
:1000F0002D090426F441641EAC4201D300F026F819
:100100000126334200D0FB1A3343984754465D46DC
:10011000DFE70000A42D0000B42D00000000000067
:100120007047000000000000002300240025002686
:10013000103A01D378C1FBD8520700D330C100D5A3
:100140000B6070471FB51FBD10B510BD00F05AFA07
:100150001146FFF7F7FF02F03FFA00F072FA03B41E
:10016000FFF7F2FF03BC00F0C3FA000006480047A7
:10017000FEE7FEE7FEE7FEE7FEE7FEE70348044989
:10018000024A044B70470000C100000030072020E5
:10019000300820203007202001E004C0091F042976
:1001A000FBD28B0701D50280801CC90700D00270EA
:1001B000704700290BD0C30702D00270401C491EB3
:1001C000022904D3830702D50280801C891EE3E73D
:1001D0000022EEE70022DFE7002203098B4273D3FF
:1001E000030A8B4258D3030B8B423CD3030C8B4244
:1001F00021D312E003460B437FD4002243088B42F5
:1002000074D303098B425FD3030A8B4244D3030B9D
:100210008B4228D3030C8B420DD30902FF2212BA62
:10022000030C8B4202D31212090265D0030B8B42DE
:1002300019D300E0090AC30B8B4201D3CB03C01AC8
:100240005241830B8B4201D38B03C01A5241430BA3
:100250008B4201D34B03C01A5241030B8B4201D393
:100260000B03C01A5241C30A8B4201D3CB02C01AFE
:100270005241830A8B4201D38B02C01A5241430A76
:100280008B4201D34B02C01A5241030A8B4201D365
:100290000B02C01A5241CDD2C3098B4201D3CB010C
:1002A000C01A524183098B4201D38B01C01A5241BB
:1002B00043098B4201D34B01C01A524103098B42BF
:1002C00001D30B01C01A5241C3088B4201D3CB00AA
:1002D000C01A524183088B4201D38B00C01A52418D
:1002E00043088B4201D34B00C01A5241411A00D23D
:1002F00001465241104670475DE0CA0F00D04942A6
:10030000031000D3404253409C46002203098B4215
:100310002DD3030A8B4212D38901FC2212BA030A9D
:100320008B420CD3890192118B4208D3890192111F
:100330008B4204D389013AD0921100E08909C309A4
:100340008B4201D3CB01C01A524183098B4201D3A6
:100350008B01C01A524143098B4201D34B01C01A91
:10036000524103098B4201D30B01C01A5241C30809
:100370008B4201D3CB00C01A524183088B4201D378
:100380008B00C01A5241D9D243088B4201D34B0093
:10039000C01A5241411A00D20146524110466346EA
:1003A0005B1001D34042002B00D5494270476346A1
:1003B0005B1000D3404201B50449002802DC491C0F
:1003C000084000E00846C046C04602BDFFFFFF7F70
:1003D0007047704770470000F0B5FF252D04C6092F
:1003E000C209FF2704462E400137CB093E4348404F
:1003F0002A402B400746002A6BD0002B69D0AA4226
:1004000067D0AB4265D0002800DA32460125ED0501
:1004100029432C4309022002090AD21A4B0C7F24DB
:10042000E31A434C000A7C44E35C7D242404121943
:1004300014145B00A218884201D3521C00E0400053
:1004400049420C465C4324115C43DB016415E3180C
:10045000040A5C43C502200D0C4644436419250A76
:100460005D432303EC0C0D46654300030019EB18B4
:100470004C42A34201D35B18401CD4052018002B2A
:1004800007D05B00C91804D3401C002901D14008E3
:1004900040003F2189048A4209D3002A08DC110662
:1004A000090F04D0032149074018C00FC007F0BD51
:1004B00001224100120689187F2252069142F6D28B
:1004C00005214907C84201D59010F0BDFF20C005A5
:1004D000F0BD002F00DA32461648AA4207D2AB42DE
:1004E00005D21902090E17D0F80FC007F0BDFF257D
:1004F00063002D06AB42F9D84900A942F6D8AB42B9
:1005000001D1A942F2D0A94201D1002101E061004C
:100510004908D0050843F0BD1102090EFBD0FF20A9
:100520000243D005F0BD0A460146104654E70000DC
:10053000BE2900000000C07F1F22030C02D10F2241
:1005400000041CD0030E01D10002083A030F01D1B0
:100550000001121F830F01D18000921E002801DBD1
:100560004000521ED2055118021251181922904013
:1005700004D3491C002801D14908490008467047A6
:10058000C10FC90700D04042012292071143D3E7AF
:1005900001218907D0E7000010B5FF231B064400A6
:1005A0009C421DD84C009C421AD80346124A0B4369
:1005B00007D4401A02D3EFF3008010BDEFF30080A0
:1005C00010BD081A03D3EFF30080904305E0EFF36A
:1005D000008001219043C907084380F3008810BDC3
:1005E0000D231B041A4204D01146002000F031F8FC
:1005F00010BD00F045F810BD0000009000487047A5
:10060000000020207546FFF7F9FFAE460500694659
:100610005346C008C000854618B020B5FFF7AEFDB0
:1006200060BCB64600260027C0C5C0C5C0C5C0C551
:10063000C0C5C0C5C0C5C0C5403D490849008D46BC
:10064000704710B50446C046C0462046FFF787FDF8
:1006500010BDC80212D54803400F002804D0C803BB
:10066000C043012188407047EFF30080000100097A
:1006700003210907084380F3008870470020704772
:1006800010B5024800F004F810BD00000000C07F63
:1006900010B50C461107090F092904D00A290AD000
:1006A00008290CD104E011460820FFF7D2FF06E02C
:1006B000510606D501E0510601D50120C0072146AB
:1006C00010BDD10607D501010909CC084907000E64
:1006D0000006044309E0410F20024907000A0143D4
:1006E000200E00061D22D14101430846E7E7000025
:1006F00001491820ABBEFEE7260002007047811EAC
:10070000091F00BFFCD27047F0B584B0012422025B
:100710002A4B196803929143196035490D686D049D
:10072000FCD5457E25409E69A64374199C61202412
:10073000045D03252C40DE69AE433419DC61204C96
:10074000256805262660466A37681F6276685E62FD
:1007500007262E402660C4697F252D02DE69AE4340
:100760006406640C3419DC6107684568826800928D
:10077000C66802690192426902929A69114C14405A
:100780003A07120B2D03ADB2AA183243009D2D0774
:100790002D0D1543019A1543029A1543007E2843F7
:1007A000094A0240101998611868039A10431860AA
:1007B00008688005FCD504B0F0BDC04608010B40B8
:1007C000001340408D00F0FF72FF0F000749886062
:1007D000074802689202FCD5012212040B681343F9
:1007E0000B600168C906FCD57047C04604010B4088
:1007F00004020B40F0B582B0C04A82180192112366
:100800001C028B7A5B1EDEB2022E0AD85BB29B0002
:100810003B4DED584923DB011F467743FB18761CFF
:1008200002E0022500231E4602190092CF688F24A1
:1008300027402F43B50045193120C0012E58A6434B
:100840003E432E504868019A50600878052835D8F4
:10085000012637468740092427420ED11224274219
:1008600018D04E7AA74F032E21D0012E3CD1AC4A8E
:10087000AE18AA583A40244F1EE04C7A77272740FA
:10088000A74AAA589F4C1440E21974041719A44AA5
:10089000AE1812E0A24AAE18AA589A4F17404A7AE8
:1008A000012A02D1184A521C06E0164A04E09C4A6A
:1008B000AE18AA583A40154F174337600022009CE3
:1008C0002260C01E032801D220200343087ABD21E4
:1008D00001401943019B18684E4A02400A43022016
:1008E0001043186002B0F0BD772216408C4AAC5815
:1008F0003C403443044FFF372743AE18DDE7C04682
:10090000282E000001020200010102000303020080
:10091000F0B57A4A82183B4BC31808794E793A4DA4
:10092000784C002E23D0202804D00526F60100287C
:1009300003D003E0354E002800D18826576F2F40A2
:1009400037435767976F2F4037439767566B26405B
:100950005663966B264096630026566596658F26ED
:10096000F6435F6837405F609F6837409F608E79CD
:10097000096820280BD0002819D1491E5160D76E74
:100980002F4088210F43D7661746703719E0491E5C
:100990005160D16E29401D4F3943D166116F2940F6
:1009A0003943116701214907194D174609E04908E4
:1009B0005160D76E2F400521C9010F43D7661746F6
:1009C00070373C682C400C433C60D16A4D4C214050
:1009D000D162116B214011630021D16411658F2117
:1009E000C943D46F0C40D4671C680C401C6006439C
:1009F000BD2030401168074B0B40C018801C1060B0
:100A0000F0BDC0468418000024493E0001040000E7
:100A1000FFFFFFCF4000FFCFB0B54A68364BC25052
:100A2000364A80180A78222A58D8930001A4E3583D
:100A30009F46C046D30A0000DD0A0000D30A00002A
:100A4000DD0A0000DD0A0000DD0A0000DD0A00000A
:100A5000DD0A0000DD0A0000DD0A0000DD0A0000FA
:100A6000DD0A0000DD0A0000DD0A0000DD0A0000EA
:100A7000DD0A0000C10A0000DD0A0000C10A000012
:100A8000DD0A0000DD0A0000DD0A0000DD0A0000CA
:100A9000DD0A0000DD0A0000DD0A0000DD0A0000BA
:100AA000DD0A0000DD0A0000DD0A0000DD0A0000AA
:100AB000DD0A0000C10A0000DD0A0000C10A0000D2
:100AC00003231B0704689C4301235B07E3180360AF
:100AD00004E003231B0704689C4304600B69C360A4
:100AE000CB68074C1C40C36A064D1D402B19C362DE
:100AF000097A11430160B0BD081800000418000015
:100B0000777702008888FDFF10B507239B04194002
:100B100092008018024A84589C436118815010BD8D
:100B20003018000010B5029CA400001911431943AD
:100B3000014A815010BDC046501800009200801834
:100B4000014A81507047C0461018000010B50122BC
:100B5000120383180C789C604B7883508978014A83
:100B6000815010BD0C110000B0B511221202835843
:100B70000124A34383500B888C781C438B88234328
:100B8000094C1C408358094D1D40631983508B79D3
:100B9000CC791C43097A21437E231940801842688E
:100BA0009A4351184160B0BD18670000E798FDFFF7
:100BB00010B50122120383180C789C60497881508B
:100BC00010BD0000034A801802681206FCD481613F
:100BD0007047C0460811000010B599490B680C4ACF
:100BE00013600B6814681B1B83420ED20B681468D9
:100BF0001B1B834209D20B6814681B1B834204D25F
:100C00000B6814681B1B8342EBD3002010BDC04649
:100C1000E006202032480021016032480160074888
:100C200001600748016007480160074801600F2024
:100C3000000306490A6802430A607047AC0420209A
:100C40004006202080062020B004202028100A40E2
:100C5000F0B50F200103214A103A13681940CF0B59
:100C60000125AE030022D243002F09D0DD480768DA
:100C70003742174600D02F46194C2068C019206013
:100C800033420BD0E803D74C2468044201D0154608
:100C900000E00125124804686419046001252E0350
:100CA000980409D5CF4800683042174600D02F4637
:100CB0000C480468E4190460334209D06803C94B46
:100CC0001B68034200D10122064803689A1802609B
:100CD000024A106808431060F0BDC04648100A4040
:100CE00060002020640020200B48534901604163CC
:100CF0000A480160C1600A48002101800181018227
:100D000001834F490A6842600A68C2600A6842610A
:100D10000968C1617047C046BC8042400C804240B7
:100D2000C0062020F0B583B001920D460146002098
:100D300000292DD0002D2BD0009100273C464720C4
:100D400002A9022201F024FD002823D0029E01986E
:100D5000FFF742FFF0BAFFF713FC1049FFF73CFB27
:100D60000146204601F068FF04467F1CB8B2A84245
:100D7000E5D3002032490968009E7060B1602846C2
:100D8000FFF706FC01462046FFF726FB30600120F6
:100D900003B0F0BD002003B0F0BDC0460000034327
:100DA000F0B581B00024002841D0074621482249EF
:100DB000016081214160214802210164012505650E
:100DC00001607820FFF79BFC6B268021304601F004
:100DD000EDFD6420FFF700FF3046294601F0E6FDF7
:100DE000002824D01920092101F0E0FD1A20032158
:100DF00001F0DCFD1B200024214601F0D7FD6946EF
:100E00000C70752001252A4601F0C2FC00280ED086
:100E1000684600787F210140682908D10020786069
:100E200038600A20B88106480068B8602C46204621
:100E300001B0F0BD0480424081000E0090120A40D3
:100E40002807202070470000F0B583B0644C403480
:100E5000019040B20028204604D401206049086077
:100E60000846303001260660C8252846FFF747FCB3
:100E70005B4810380227029007602846FFF73FFCC6
:100E8000574807602846FFF73AFC0198400620467D
:100E900002D45348066030300660C8252846FFF764
:100EA0002EFC029807602846FFF729FC4C48076093
:100EB0002846FFF724FC01988006204602D44848C3
:100EC000066030300660C8252846FFF718FC0298F7
:100ED00007602846FFF713FC414807602846FFF7E4
:100EE0000EFC0198C006204602D43D480660303012
:100EF0000660C8252846FFF702FC029807602846CE
:100F0000FFF7FDFB364807602846FFF7F8FB01981E
:100F10000007204602D43248066030300660C825FB
:100F20002846FFF7ECFB029807602846FFF7E7FB2F
:100F30002B4807602846FFF7E2FB01984007204650
:100F400002D42748066030300660C8252846FFF7DF
:100F5000D6FB029807602846FFF7D1FB20480760C0
:100F60002846FFF7CCFB01988007204602D41C4896
:100F7000066030300660C8252846FFF7C0FB02989F
:100F800007602846FFF7BBFB154807602846FFF7B8
:100F9000B6FB0198C00702D1114C266030342660A0
:100FA000C8242046FFF7ABFB0196029E376020461F
:100FB000FFF7A5FB0A4D2F602046FFF7A0FB019825
:100FC00028642046FFF79BFB37602046FFF797FB1E
:100FD000044800682F602046FFF791FB03B0F0BD86
:100FE000A0120A4080130A40F0B585B0FB48FC49C6
:100FF0000160812100914160FA4F0221396301268D
:101000003E6438461038029001603E6401600C4630
:101010000191C8252846FFF772FB3E603E632846D3
:10102000FFF76DFB3C602846FFF769FB78200490D2
:10103000FFF70AFF00200390FFF706FFAE20FFF73F
:1010400003FF3E603E632846FFF759FB029C019F69
:1010500027602846FFF753FBE24806642846FFF75F
:101060004EFBE048066427602846FFF748FBDD4C4E
:10107000266026632846FFF742FB27602846FFF7D5
:101080003EFB0498FFF7E0FE0398FFF7DDFED52056
:10109000FFF7DAFE266026632846FFF730FB029C46
:1010A00027602846FFF72BFBCE4806642846FFF74B
:1010B00026FBCC48066427602846FFF720FBC94C76
:1010C000266026632846FFF71AFB27602846FFF7AD
:1010D00016FB0498FFF7B8FE0398FFF7B5FE8020D3
:1010E000FFF7B2FE266026632846FFF708FB029F43
:1010F000019C3C602846FFF702FBBA48066428467C
:10110000FFF7FDFAB74806643C602846FFF7F7FA98
:10111000B44F3E603E633C462846FFF7F0FA019F1D
:1011200027602846FFF7EBFA0498FFF78DFE039837
:10113000FFF78AFEA820FFF787FE26602663284671
:10114000FFF7DDFA029C27602846FFF7D8FAA5488A
:1011500006642846FFF7D3FAA248066427602846AB
:10116000FFF7CDFA9F4C266026632846FFF7C7FAA3
:1011700027602846FFF7C3FA0498FFF765FE039837
:10118000FFF762FE3F20FFF75FFE266026632846DA
:10119000FFF7B5FA029F019C3C602846FFF7AFFAC3
:1011A000904806642846FFF7AAFA8E4806643C6019
:1011B0002846FFF7A4FA8B4F3E603E633C46284624
:1011C000FFF79DFA019F27602846FFF798FA0498D9
:1011D000FFF73AFE0398FFF737FED320FFF734FE00
:1011E000266026632846FFF78AFA029C2760284675
:1011F000FFF785FA7B4806642846FFF780FA7948AE
:10120000066427603C462846FFF779FA754F3E6032
:101210003E632846FFF773FA3C602846FFF76FFAF3
:101220000498FFF711FE039C2046FFF70DFE2046B1
:10123000FFF70AFE3E603E632846FFF760FA029C15
:10124000019F27602846FFF75AFA66480664284639
:10125000FFF755FA6348066427602846FFF74FFA00
:1012600060480660066304462846FFF748FA276090
:101270002846FFF744FA0498FFF7E6FD0398FFF7C6
:10128000E3FD4020FFF7E0FD266026632846FFF7D8
:1012900036FA029C27602846FFF731FA5148066467
:1012A0002846FFF72CFA4F48066427602846FFF7C8
:1012B00026FA4C4C266026632846FFF720FA276062
:1012C0002846FFF71CFA0498FFF7BEFD0398FFF7C6
:1012D000BBFD2020FFF7B8FD266026632846FFF7F8
:1012E0000EFA029F019C3C602846FFF708FA3D4831
:1012F00006642846FFF703FA3A4806643C6028462D
:10130000FFF7FDF9374F3E603E633C462846FFF746
:10131000F6F9019F27602846FFF7F1F90498FFF7D7
:1013200093FD0398FFF790FD3846FFF78DFD26608B
:1013300026632846FFF7E3F9029C27602846FFF75B
:10134000DEF9284806642846FFF7D9F925480664DF
:1013500027602846FFF7D3F9224C266026632846EB
:10136000FFF7CDF927602846FFF7C9F90498FFF782
:101370006BFD0398FFF768FDA120FFF765FD266070
:1013800026632846FFF7BBF9029F019C3C60284674
:10139000FFF7B5F9134806642846FFF7B0F911487E
:1013A00006643C602846FFF7AAF90E4F3E603E6394
:1013B0003C462846FFF7A3F9019F27602846FFF720
:1013C0009EF90498FFF740FD0398FFF73DFD28467E
:1013D000FFF73AFD2660266306E0C04604804240DF
:1013E00081000E00A0120A402846FFF788F9029CEF
:1013F00027602846FFF783F9FC4806642846FFF774
:101400007EF9FA48066427602846FFF778F9F74C1A
:10141000266026632846FFF772F927602846FFF703
:101420006EF90498FFF710FD0398FFF70DFDDA2021
:10143000FFF70AFD266026632846FFF760F9029F42
:10144000019C3C602846FFF75AF9E84806642846A4
:10145000FFF755F9FD4806643C602846FFF74FF951
:10146000FA4F3E603E633C462846FFF748F9019F2D
:1014700027602846FFF743F90498FFF7E5FC039837
:10148000FFF7E2FC1220FFF7DFFC26602663284608
:10149000FFF735F9029C27602846FFF730F9EB4843
:1014A00006642846FFF72BF9E848066427602846BB
:1014B000FFF725F9E54C266026632846FFF71FF95C
:1014C00027602846FFF71BF90498FFF7BDFC039837
:1014D000FFF7BAFC0098FFF7B7FC266026632846A2
:1014E000FFF70DF9029F019C3C602846FFF707F9C2
:1014F000D64806642846FFF702F9D44806643C60E3
:101500002846FFF7FCF8D14F3E603E633C46284634
:10151000FFF7F5F8019F27602846FFF7F0F80498D9
:10152000FFF792FC0398FFF78FFCCF20FFF78CFCAE
:10153000266026632846FFF7E2F8029C27602846CB
:10154000FFF7DDF8C14806642846FFF7D8F8BF4822
:10155000066427602846FFF7D2F8BC4C2660266355
:101560002846FFF7CCF827602846FFF7C8F804980C
:10157000FFF76AFC0398FFF767FCD920FFF764FCCC
:10158000266026632846FFF7BAF8029C27602846A3
:10159000FFF7B5F8F64806642846FFF7B0F8F448B8
:1015A000066427602846FFF7AAF8F148066006633C
:1015B00004462846FFF7A3F827603C462846FFF775
:1015C0009EF80498FFF740FC0398FFF73DFCF120DC
:1015D000FFF73AFCE648066006632846FFF78FF8F7
:1015E000029F3C602846FFF78AF8E14806642846D7
:1015F000FFF785F8DE4806643C602846FFF77FF871
:10160000DB4F3E603E632846FFF779F83C60284692
:10161000FFF775F80498FFF717FC0398FFF714FC21
:10162000DB20FFF711FC3E603E632846FFF767F8BA
:10163000029F3C602846FFF762F8CD4806642846C2
:10164000FFF75DF8CA4806643C602846FFF757F884
:10165000C748066006632846FFF751F8C44804608F
:101660002846FFF74CF80498FFF7EEFB0398FFF7C6
:10167000EBFB3020FFF7E8FBBD4806600663284619
:10168000FFF73DF83C602846FFF739F8B848066494
:101690002846FFF734F8B64806643C602846FFF752
:1016A0002EF8B348066006632846FFF728F8FD4881
:1016B00004602846FFF723F80498FFF7C5FB03985A
:1016C000FFF7C2FBA420FFF7BFFBF64806600663E6
:1016D0002846FFF714F83C602846FFF710F8F14859
:1016E00006642846FFF70BF8EE4806643C6028467F
:1016F000FFF705F8EB480660066307462846FEF745
:10170000FEFF3C6027462846FEF7F9FF0498FFF7E6
:101710009BFB0398FFF798FBA620FFF795FBE1489A
:10172000066006632846FEF7EAFF029C276028460B
:10173000FEF7E5FFDB4806642846FEF7E0FFD948E0
:10174000066427602846FEF7DAFFD64C266026633B
:101750002846FEF7D4FF27602846FEF7D0FF0498FE
:10176000FFF772FB0398FFF76FFB8D20FFF76CFB11
:10177000266026632846FEF7C2FF029F019C3C605C
:101780002846FEF7BCFFC74806642846FEF7B7FFA9
:10179000C44806643C603C462846FEF7B0FFC14F93
:1017A0003E603E632846FEF7AAFF0198386028464F
:1017B000FEF7A5FF0498FFF747FB0398FFF744FBEC
:1017C0001420FFF741FB3E603E632846FEF797FF7B
:1017D000019F27602846FEF792FFB248066428461C
:1017E000FEF78DFFAF48066402E0C046A0120A4033
:1017F00027602846FEF783FFAA4C2660266328460A
:10180000FEF77DFF27602846FEF779FF0498FFF773
:101810001BFB0398FFF718FBAF20FFF715FB2660B3
:1018200026632846FEF76BFF029807602846FEF7FE
:1018300066FF26642846FEF762FFB1027848FEF78D
:10184000C9FC00F097F805B0F0BDC046A0120A40F0
:10185000F0B587B005910290924E0125356430466F
:1018600010380690022101600F460191C8242046DD
:10187000FEF745FF356035632046FEF740FF3760D1
:101880002046FEF73CFF78200490FFF7DDFA0020A9
:101890000390FFF7D9FAB02002990843FFF7D4FA72
:1018A000356035632046FEF72AFF069F019E3E60A5
:1018B0002046FEF724FF7B4805642046FEF71FFF05
:1018C000784805643E602046FEF719FF75480560BC
:1018D00005632046FEF713FF374672480660204630
:1018E000FEF70DFF0498FFF7AFFA0398FFF7ACFA85
:1018F000059800091030FFF7A7FA6A4805600563EC
:101900002046FEF7FCFE069E37602046FEF7F7FEF7
:10191000644805642046FEF7F2FE624805643760BD
:101920002046FEF7ECFE5F4E356035632046FEF73D
:10193000E6FE37602046FEF7E2FE0498FFF784FAE1
:101940000398FFF781FA0F2005990840FFF77CFA0A
:10195000356035632046FEF7D2FE069807602046C4
:10196000FEF7CDFE35642046FEF7C9FE07B0F0BD98
:10197000A0120A40F0B581B0002420462146FFF7AE
:1019800067FF274880250646294600F04BF80127C7
:1019900038462146FFF75CFF30468030294600F08C
:1019A00041F802202146FFF753FF3802301829463C
:1019B00000F038F8032630462146FFF749FFF001D2
:1019C00017490818294600F02DF804202146FFF792
:1019D0003FFF780212490818294600F023F805272E
:1019E00038462146FFF734FFF8010D4F38182946D5
:1019F00000F018F806202146FFF72AFF30023818B9
:101A0000294600F00FF8072630462146FFF720FF51
:101A1000F0013818294600F005F801B0F0BDC046C5
:101A200068002020F0B583B00C4605461D4801270C
:101A3000076410380221009101900160C8263046E9
:101A4000FEF75DFE1748076002970763009F304668
:101A5000FEF755FE134807603046FEF750FE78202B
:101A6000FFF7F2F94020FFF7EFF9002C06D02878B5
:101A7000FFF7EAF9641E6D1C002CF8D1094D029E97
:101A80002E602E63C8242046FEF739FE01980760B9
:101A90002046FEF734FE2E642046FEF730FE03B0EB
:101AA000F0BDC046A0120A4070B5044606986063B7
:101AB000059820630498E06200252EC425606560C7
:101AC000A560E56025616561A561079E30462946F0
:101AD000103C01F0A6F8002800D135467F20C6054D
:101AE0002846314601F09DF8002800D13546A5630F
:101AF00070BD000010B5064C06492046FFF726F8D9
:101B000005492046FEF776FE04480121016010BD1C
:101B100000208640442E0000342E0000083186400C
:101B2000F0B5324A8523136001210C05304804606A
:101B30008424D4614D062F490D601360D46113468F
:101B4000243B2D4C651D1D602C4B82251D655C655D
:101B500081249C612A4D15619D6716460C3E3560B7
:101B60001646103E35601646143E356016463C3E1D
:101B700035609D635D6694611646283E34609C65C1
:101B8000DC6516462C3E1F4F37601646303E3760E8
:101B90001646343E37601646383E37601C605C603F
:101BA000161F356015639D605D611C66DD67164A12
:101BB0005A639A620A46303A144B13600B605521FF
:101BC0000906134A13680B4313600F210903114AD6
:101BD000136A0B43136213680B43136001463039D9
:101BE000072292010A600260F0BDC046C0804240F8
:101BF000D0320A40D0120A408200040004804240E1
:101C000081000C0081000E0081000200C70001016C
:101C100090130A4028100A4070B582B0C24C1B498C
:101C20002046FEF793FF1A492046FEF771FE194839
:101C30000168194A0A40026000250095204629469D
:101C40002A462B46FEF76EFF204629462A46FEF717
:101C50005BFF204629462A46FEF770FF01260096C4
:101C6000204629462A462B46FEF75CFF2046294699
:101C70003246FEF749FF204629463246FEF75EFF10
:101C8000064886600321016002B070BD472E000047
:101C90004C2E0000041887407F00FFFF0011874092
:101CA000B0B51648002404600F200002144D2968C6
:101CB000814301204202891829600321C9432A1F58
:101CC00013680B40136069688143696000026968AA
:101CD000814369600B48FEF717FD28681021014316
:101CE0002020814329602046FEF770FDFF2000027E
:101CF000DA490A6882430A60B0BDC04608030B4057
:101D000004010B40542E000010B50B4C0B4920462B
:101D1000FEF71CFF0A492046FEF77EFE09480168CF
:101D2000012211430160FF20000407490B6883432F
:101D30000B600648026010BD000086407C2E00004B
:101D4000802E00002810864010E400E00811864034
:101D500010B5084C08492046FEF7F8FE0749204612
:101D6000FEF75AFE0648016801221143016005484A
:101D7000026010BD00400840942E0000982E000024
:101D8000285008400851084010B5124C124920460E
:101D9000FEF70EFF11492046FEF7E6FE0320C103C1
:101DA0000F4802688A43026001690E4A0A401532F0
:101DB000026141692D220A4312218A43426141682E
:101DC000012211404368934359184160016811434F
:101DD000016010BD00801040AC2E0000AE2E00004F
:101DE000009110400000FFFF80B500F019F8FFF7E8
:101DF00097FEFFF755FFFFF70FFFFFF77BFEFFF79B
:101E000083FFFFF7A5FFFFF7BFFFB82002490022BD
:101E10000A5402490A5480BD84052020B4042020BD
:101E2000F0B581B00D480E4941600E4A51600E4B2D
:101E300059600E4C61600E4D69600E4E71600E4F20
:101E400079600E490160116019602160296031607C
:101E500039601020FEF753FC01B0F0BD00080A40C5
:101E6000030000B100280A4000088740002886408F
:101E70000008864000480840008810400100002605
:101E800070470000F0B581B00C462449012806DBFC
:101E90000A46103A01231D0615601A0408E00028BE
:101EA00001D41F4A04E0012213060B60103912040A
:101EB0000A601C49012C05DB0A46103A40231360D6
:101EC000802202E0002C24D4C0220A60C1174840BE
:101ED000411A0A2569437D20C700B94200D339461B
:101EE0001926192900D831460F480022FEF726FE90
:101EF000E0174440201A4543BD4200D33D46192D0A
:101F000000D83546012208482946FEF717FE01B0E1
:101F1000F0BD40220A601039D2E7C046A0120A4044
:101F200000000101A0320A40000087400D4801680E
:101F3000491C01607047C046B0B50A4800210160E5
:101F400009480A4A42600A4A13680A4C234003259A
:101F5000AD075B19136081600721016010682040A4
:101F60001060B0BD2807202010E000E07F3801009D
:101F700020ED00E0FFFFFF00F0B585B0FFF7DCFFCC
:101F8000FEF760FFFFF77CFFFF25280233490A6850
:101F900082430A6028040A6982430126B0051018AA
:101FA00008612F4802210160B20402602D480160DF
:101FB0000260FEF72FFEFEF797FE00F0A7F862B66C
:101FC000FFF712F8284C2046FEF7EAFE00280AD058
:101FD0003220A08125480670C82105222046FEF740
:101FE000A1FE002802D12148002101702048039061
:101FF00020480290204E0196204F0097AC052048C3
:10200000204D214B21462A46FFF74EFD00970196B1
:1020100018480290164803901C4821462A461A4B3D
:10202000FFF742FD1A4C0097019612480290039464
:10203000FD2081051748184A184BFFF735FD03941A
:10204000029717480190174800901748174A1849F7
:102050000B46FFF729FD05B0F0BDC04600E400E0E7
:1020600080E200E000E100E07005202080052020F3
:10207000CDCC4C3E000070420000A0C20000A04247
:10208000440620200AD7233C00004040840620203C
:102090003333333FE40620208FC2F53C6666663F4B
:1020A00000008CC200008C4270042020CDCCCC3DBE
:1020B0009A99993FB0B50E480168C9B2012913D168
:1020C0000C490A680C4B1A600C4A146864420C4DA7
:1020D0002C601B682C6800250D609900094B196065
:1020E0001560A100084A116001218162B0BDC0469F
:1020F0002010864060002020AC04202064002020B6
:10210000B0042020400620208006202070470000D8
:10211000F0B589B0F84800680490F848006802906B
:10212000F74800680190F74800680390F648046893
:10213000F64807687D20C0000590F548002F06D4BA
:1021400009D13021F24F3846FEF73CFD4FE02D21FA
:10215000FEF738FD7F4203250A263846314600F057
:1021600065FC4643B91B3026314306AA5219D21EDC
:1021700011700A2F2CD30A21FEF72EF8314306A83E
:102180004019801E0170642F24D36421384600F06A
:102190004DFC0A21FEF720F8314306A84019401EE5
:1021A000017005998F4216D3384600F03FFC0A2192
:1021B000FEF712F8314306A841553846D54900F0DC
:1021C00035FC2D1DD3498F420746C5D2ED1E02E0D6
:1021D000AD1E00E06D1E6D1CCD4F06A84019801E7F
:1021E00001783846FEF7EEFC6D1E012DF5D82C2146
:1021F0003846FEF7E7FC002C05D409D130213846DB
:10220000FEF7E0FC51E02D213846FEF7DBFC64428E
:102210000325EF4F0A262046314600F007FC4643CF
:10222000A11B3026314306AA5219D21E11700A2C66
:102230002CD30A21FDF7D0FF314306A84019801E98
:102240000170642C24D36421204600F0EFFB0A21A6
:10225000FDF7C2FF314306A84019401E01700599E1
:102260008C4216D3204600F0E1FB0A21FDF7B4FFB3
:10227000314306A841552046394600F0D7FB2D1DB5
:10228000D3498C420446C5D2ED1E02E0AD1E00E0EB
:102290006D1E6C1CCF4F06A80019801E01783846B1
:1022A000FEF790FC641E012CF5D82C213846FEF771
:1022B00089FC019C002C05D40AD130213846FEF758
:1022C00081FC50E02D213846FEF77CFC019C6442E5
:1022D00003250A262046314600F0A8FB4643A11BF1
:1022E0003026314306AA5219D21E11700A2C2CD363
:1022F0000A21FDF771FF314306A84019801E0170C5
:10230000642C24D36421204600F090FB0A21FDF7C1
:1023100063FF314306A84019401E017005998C42A5
:1023200016D3204600F082FB0A21FDF755FF31430A
:1023300006A841552046A64900F078FB2D1DA4496A
:102340008C420446C5D2ED1E02E0AD1E00E06D1EBB
:102350006C1C06A80019801E01783846FEF732FC76
:10236000641E012CF5D82C213846FEF72BFC029C6C
:10237000002C05D40AD130213846FEF723FC50E06A
:102380002D213846FEF71EFC029C644203260A25D6
:102390002046294600F04AFB4543611B302529436E
:1023A00006AA9219D21E11700A2C2CD30A21FDF70D
:1023B00013FF294306A88019801E0170642C24D3C2
:1023C0006421204600F032FB0A21FDF705FF294376
:1023D00006A88019401E017005998C4216D320462C
:1023E00000F024FB0A21FDF7F7FE294306A88155DA
:1023F0002046774900F01AFB361D75498C42044689
:10240000C5D2F61E02E0B61E00E0761E741C06A8B9
:102410000019801E01783846FEF7D4FB641E012C9B
:10242000F5D82C213846FEF7CDFB039C002C05D4B3
:102430000AD130213846FEF7C5FB50E02D21384641
:10244000FEF7C0FB039C644203260A25204629466A
:1024500000F0ECFA4543611B3025294306AA921986
:10246000D21E11700A2C2CD30A21FDF7B5FE294388
:1024700006A88019801E0170642C24D36421204694
:1024800000F0D4FA0A21FDF7A7FE294306A8801917
:10249000401E017005998C4216D3204600F0C6FA02
:1024A0000A21FDF799FE294306A88155204648498F
:1024B00000F0BCFA361D46498C420446C5D2F61ED1
:1024C00002E0B61E00E0761E741C06A80019801EED
:1024D00001783846FEF776FB641E012CF5D82C21D6
:1024E0003846FEF76FFB049C002C15D41AD130211E
:1024F0003846FEF767FB60E06C0420208006202051
:1025000024072020680420204006202020072020C7
:1025100000801040102700002D213846FEF752FBA6
:10252000049C644203260A252046294600F07EFAD0
:102530004543611B3025294306AA9219D21E11700A
:102540000A2C2CD30A21FDF747FE294306A880193F
:10255000801E0170642C24D36421204600F066FAAA
:102560000A21FDF739FE294306A88019401E017093
:1025700005998C4216D3204600F058FA0A21FDF73F
:102580002BFE294306A881552046114900F04EFA3A
:10259000361D0F498C420446C5D2F61E02E0B61E17
:1025A00000E0761E741C06A80019801E01783846CB
:1025B000FEF708FB641E012CF5D80D213846FEF706
:1025C00001FB0A213846FEF7FDFA09B0F0BDC0460E
:1025D0001027000000801040FFF706FCFFF7CCFC3E
:1025E000FFF796FD32200146FFF74CFCF8E70000AC
:1025F000F0B583B0EB4C4034019040B20028204647
:1026000004D40120E74908600846303001270760FC
:1026100078252846FEF773F8E24810380226029023
:1026200006602846FEF76BF8DE4806602846FEF78F
:1026300066F801984006204602D4FB480760303017
:10264000076078252846FEF75AF802980660284663
:10265000FEF755F8F44806602846FEF750F8019852
:102660008006204602D4F0480760303007607825A5
:102670002846FEF744F8029806602846FEF73FF821
:10268000E94806602846FEF73AF80198C006204659
:1026900002D4E54807603030076078252846FEF709
:1026A0002EF8029806602846FEF729F8DE480660F4
:1026B0002846FEF724F801980007204602D4DA489D
:1026C00007603030076078252846FEF718F8029832
:1026D00006602846FEF713F8D34806602846FEF742
:1026E0000EF801984007204602D4CF4807603030EA
:1026F000076078252846FEF702F80298066028460B
:10270000FDF7FDFFC84806602846FDF7F8FF019871
:102710008007204602D4C44807603030076078251F
:102720002846FDF7ECFF029806602846FDF7E7FF14
:10273000BD4806602846FDF7E2FF0198C00702D1B8
:10274000B94C27603034276078242046FDF7D7FF46
:10275000029D2E602046FDF7D2FFB348066020465A
:10276000FDF7CDFFB04807642046FDF7C8FF2E6097
:102770002046FDF7C4FF8C480568AB48066020463C
:10278000FDF7BDFF3D406842684103B0F0BDC04663
:10279000F0B58FB0002900D1EBE00B910C920E90B8
:1027A000A14C0127276420461038022502900560BD
:1027B00078263046FDF7A3FF276027633046FDF7F4
:1027C0009EFF25603046FDF79AFFD020FFF710FFEF
:1027D0000026002800D1D0E00E98FFF709FF00285E
:1027E00000D1CAE09048076402980560782420462A
:1027F000FDF785FF8C48076007632046FDF77FFFE4
:10280000894805602046FDF77AFFD120FFF7F0FEEA
:1028100000280C9900D1B0E000293E4600D1ACE080
:102820000097481EC2B2804F029C01953BE00D9973
:10283000396038463030016078263046FDF75FFF5A
:10284000029C019D25603046FDF759FF3D603046F2
:10285000FDF755FF0D983864039A02400A98C001AD
:102860000999C907490E08180899C907890E081857
:102870000799C907C90E08180699C907090F08184A
:102880000599C907490F08180499C907890F014319
:1028900011430B9801700C99491E0E9A521E401C50
:1028A0000B90002967D00E920C9101200D90386496
:1028B000256078263046FDF722FF3B4800680A90E5
:1028C0003D603046FDF71BFF25603046FDF717FFE2
:1028D0003548006809903D603046FDF710FF2560DF
:1028E0003046FDF70CFF3048006808903D603046E8
:1028F000FDF705FF25603046FDF701FF2A48006817
:1029000007903D603046FDF7FAFE25603046FDF742
:10291000F6FE2548006806903D603046FDF7EFFE64
:1029200025603046FDF7EBFE1F48006805903D60CE
:102930003046FDF7E4FE25603046FDF7E0FE1A481C
:10294000006804903D603046FDF7D9FE25603046B2
:10295000FDF7D5FE1448006803903D603046FDF752
:10296000CEFE0E98002800D061E7384640300D9921
:1029700061E7002513E0009F3E460E962A4E376021
:10298000376378242046FDF7BAFE0298056020469A
:10299000FDF7B5FE37640E9D2046FDF7B0FE2846D4
:1029A0000FB0F0BDA0120A4080130A40F0B585B008
:1029B000019102901C4F01263E64384610380224D3
:1029C0000490046078252846FDF799FE3E603E633A
:1029D0002846FDF794FE03943C602846FDF78FFEE1
:1029E000D020FFF705FE0025002808D00298FFF749
:1029F000FFFD002803D00198FFF7FAFD05460A4FB6
:102A00003E603E6378242046FDF779FE04980399E2
:102A100001602046FDF773FE3E642046FDF76FFE21
:102A2000284605B0F0BDC046A0120A4043088B42BC
:102A30001AD3002203098B4279D3030A8B425ED357
:102A4000030B8B4242D3030C8B4227D30902FF2294
:102A500012BA030C8B4202D31212090203D0030BE9
:102A60008B4233D31AE0D3E0411A8041401C7047B7
:102A700003460B4371D443088B42F5D3002203096C
:102A80008B4254D3030A8B4239D3030B8B421DD3A1
:102A9000030C8B4202D394466EE0090AC30B8B42AF
:102AA00001D3CB03C01A5241830B8B4201D38B035A
:102AB000C01A5241430B8B4201D34B03C01A5241FF
:102AC000030B8B4201D30B03C01A5241C30A8B4242
:102AD00001D3CB02C01A5241830A8B4201D38B022D
:102AE000C01A5241430A8B4201D34B02C01A5241D1
:102AF000030A8B4201D30B02C01A5241CDD2C30943
:102B00008B4201D3CB01C01A524183098B4201D3BE
:102B10008B01C01A524143098B4201D34B01C01AA9
:102B2000524103098B4201D30B01C01A5241C30821
:102B30008B4201D3CB00C01A524183088B4201D390
:102B40008B00C01A524143088B4201D34B00C01A7C
:102B50005241411A524110007047CA0F00D04942F9
:102B6000031000D34042534000229C4603098B428D
:102B70002DD3030A8B4212D38901FC2212BA030A15
:102B80008B420CD3890192118B4208D38901921197
:102B90008B4204D3890137D0921100E08909C3091F
:102BA0008B4201D3CB01C01A524183098B4201D31E
:102BB0008B01C01A524143098B4201D34B01C01A09
:102BC000524103098B4201D30B01C01A5241C30881
:102BD0008B4201D3CB00C01A524183088B4201D3F0
:102BE0008B00C01A5241D9D243088B4201D34B000B
:102BF000C01A5241411A00D2014652411046634662
:102C00005B1000D34042704763465B1000D34042E4
:102C100001B50021004201D0C9430846C046C04664
:102C200002BD10B500F04EF8EFF30080800001D433
:102C3000012010BD002010BD70B50125ED07040076
:102C40004C4020D4441A01D2001B0919C60D4B0078
:102C5000F2B2FF2A29D01B0E2CD000020C0228430E
:102C60002C43D31ADC40051910D2280A02D3401C89
:102C70006D0611D0761EF6058019FF2A00DA70BDA8
:102C8000C00DC00570BD694000F04CF8012005433F
:102C9000C541521C761CE8E764089C40C9016140AC
:102CA0008900E7D10124A043E4E71B0E440200D0D1
:102CB000034870BD002AFCD1C00FC00770BD00BF23
:102CC0000000C07F0123DB0502000A430DD4DA4275
:102CD00003D49A4207D488427047D84214D4D942C8
:102CE00012D48842704780427047DA4203D59A4234
:102CF000F9D5814270475B004200DA4204D24A00B3
:102D0000DA4201D28142704710B5024AFDF744FC15
:102D100010BD00BF0900160470B50125ED070400C1
:102D20004C4022D4441A02D26C40001B0919C60D33
:102D30004B00F2B2FF2A4BD01B0E50D000020C0207
:102D4000A8432C43D31ADC40051B05D5AD0019D38D
:102D50006D08761E521E37D0F605280A01D280195A
:102D600070BD70416D0603D070BD6940FFF76AFF0A
:102D70009C4009026140490001D0401E70BD012401
:102D8000A04370BD6D081DD001202B0C01D12D0476
:102D900010302B0E01D12D0208302B0F01D12D0147
:102DA000001DAB0F01D1AD00801CEB0F01D16D00F8
:102DB000401C361A121A6D00680AF5054019012ADE
:102DC00002DB70BD002070BDC036300AC00770BD88
:102DD0001B0E440201D1FF2B00D1024870BD002A16
:102DE000F0D070BD0000C07F818283848586878893
:102DF000898B8C8D8E8F919293959697999A9C9DA5
:102E00009FA0A2A3A5A7A8AAACAEB0B2B3B5B7B90C
:102E1000BCBEC0C2C5C7C9CCCED1D4D7D9DCDFE2D5
:102E2000E6E9ECF0F3F7FAFE000000000200000013
:102E3000000000000000000086010000000100000A
:102E4000000000000807FF0800000000E803000081
:102E5000200001000300000000000000000000004E
:102E60004000000000000000000000000200000020
:102E700009000000010000002C00C4410807C70041
:102E800002000000F301000001000000000000004B
:102E90000000000008001F00200000004FC30000D9
:102EA000000000000000000000000000080000001A
:102EB0001800000000300000C82E00000000202094
:082EC0003008000028010000A9
:04000005000000C136
:00000001FF
